{
  "contractName": "ItemManager",
  "abi": [
    {
      "anonymous": false,
      "inputs": [
        {
          "indexed": false,
          "internalType": "uint256",
          "name": "_itemIndex",
          "type": "uint256"
        },
        {
          "indexed": false,
          "internalType": "uint256",
          "name": "_step",
          "type": "uint256"
        },
        {
          "indexed": false,
          "internalType": "address",
          "name": "_itemAddress",
          "type": "address"
        }
      ],
      "name": "SupplyChainStep",
      "type": "event"
    },
    {
      "inputs": [],
      "name": "isOwner",
      "outputs": [
        {
          "internalType": "bool",
          "name": "",
          "type": "bool"
        }
      ],
      "stateMutability": "view",
      "type": "function",
      "constant": true
    },
    {
      "inputs": [
        {
          "internalType": "uint256",
          "name": "",
          "type": "uint256"
        }
      ],
      "name": "items",
      "outputs": [
        {
          "internalType": "contract Item",
          "name": "_item",
          "type": "address"
        },
        {
          "internalType": "string",
          "name": "_identifier",
          "type": "string"
        },
        {
          "internalType": "uint256",
          "name": "_itemPrice",
          "type": "uint256"
        },
        {
          "internalType": "enum ItemManager.SupplyChainState",
          "name": "_state",
          "type": "uint8"
        }
      ],
      "stateMutability": "view",
      "type": "function",
      "constant": true
    },
    {
      "inputs": [],
      "name": "owner",
      "outputs": [
        {
          "internalType": "address",
          "name": "",
          "type": "address"
        }
      ],
      "stateMutability": "view",
      "type": "function",
      "constant": true
    },
    {
      "inputs": [
        {
          "internalType": "string",
          "name": "_identifier",
          "type": "string"
        },
        {
          "internalType": "uint256",
          "name": "_itemPrice",
          "type": "uint256"
        }
      ],
      "name": "createItem",
      "outputs": [],
      "stateMutability": "nonpayable",
      "type": "function"
    },
    {
      "inputs": [
        {
          "internalType": "uint256",
          "name": "_itemIndex",
          "type": "uint256"
        }
      ],
      "name": "triggerPayment",
      "outputs": [],
      "stateMutability": "payable",
      "type": "function",
      "payable": true
    },
    {
      "inputs": [
        {
          "internalType": "uint256",
          "name": "_itemIndex",
          "type": "uint256"
        }
      ],
      "name": "triggerDelivery",
      "outputs": [],
      "stateMutability": "nonpayable",
      "type": "function"
    }
  ],
  "bytecode": "0x608060405234801561001057600080fd5b50336000806101000a81548173ffffffffffffffffffffffffffffffffffffffff021916908373ffffffffffffffffffffffffffffffffffffffff16021790555061192a806100606000396000f3fe6080604052600436106200005c5760003560e01c8063800fb83f14620000615780638c55174214620000815780638da5cb5b14620000af5780638f32d59b14620000df578063bfb231d2146200010f578063cd31831e1462000156575b600080fd5b6200007f600480360381019062000079919062000a42565b62000184565b005b3480156200008e57600080fd5b50620000ad6004803603810190620000a7919062000bd6565b62000361565b005b348015620000bc57600080fd5b50620000c7620005b4565b604051620000d6919062000c81565b60405180910390f35b348015620000ec57600080fd5b50620000f7620005dd565b60405162000106919062000cbb565b60405180910390f35b3480156200011c57600080fd5b506200013b600480360381019062000135919062000a42565b62000634565b6040516200014d949392919062000e67565b60405180910390f35b3480156200016357600080fd5b506200018260048036038101906200017c919062000a42565b62000721565b005b34600160008381526020019081526020016000206002015414620001df576040517f08c379a0000000000000000000000000000000000000000000000000000000008152600401620001d69062000f0b565b60405180910390fd5b60006002811115620001f657620001f562000de7565b5b6001600083815260200190815260200160002060030160009054906101000a900460ff1660028111156200022f576200022e62000de7565b5b1462000272576040517f08c379a0000000000000000000000000000000000000000000000000000000008152600401620002699062000f7d565b60405180910390fd5b600180600083815260200190815260200160002060030160006101000a81548160ff02191690836002811115620002ae57620002ad62000de7565b5b02179055507fa4035636e99f06b7651a604c1019fa4e8779fe68ef27eeb74dff2de348f6199b816001600084815260200190815260200160002060030160009054906101000a900460ff1660028111156200030e576200030d62000de7565b5b6001600085815260200190815260200160002060000160009054906101000a900473ffffffffffffffffffffffffffffffffffffffff16604051620003569392919062000f9f565b60405180910390a150565b60008054906101000a900473ffffffffffffffffffffffffffffffffffffffff1673ffffffffffffffffffffffffffffffffffffffff163373ffffffffffffffffffffffffffffffffffffffff1614620003f2576040517f08c379a0000000000000000000000000000000000000000000000000000000008152600401620003e9906200102c565b60405180910390fd5b60003082600254604051620004079062000935565b620004159392919062001087565b604051809103906000f08015801562000432573d6000803e3d6000fd5b5090508060016000600254815260200190815260200160002060000160006101000a81548173ffffffffffffffffffffffffffffffffffffffff021916908373ffffffffffffffffffffffffffffffffffffffff160217905550826001600060025481526020019081526020016000206001019080519060200190620004ba92919062000943565b508160016000600254815260200190815260200160002060020181905550600060016000600254815260200190815260200160002060030160006101000a81548160ff0219169083600281111562000517576200051662000de7565b5b02179055507fa4035636e99f06b7651a604c1019fa4e8779fe68ef27eeb74dff2de348f6199b60025460016000600254815260200190815260200160002060030160009054906101000a900460ff1660028111156200057b576200057a62000de7565b5b836040516200058d9392919062000f9f565b60405180910390a160026000815480929190620005aa90620010f3565b9190505550505050565b60008060009054906101000a900473ffffffffffffffffffffffffffffffffffffffff16905090565b60008060009054906101000a900473ffffffffffffffffffffffffffffffffffffffff1673ffffffffffffffffffffffffffffffffffffffff163373ffffffffffffffffffffffffffffffffffffffff1614905090565b60016020528060005260406000206000915090508060000160009054906101000a900473ffffffffffffffffffffffffffffffffffffffff16908060010180546200067f9062001170565b80601f0160208091040260200160405190810160405280929190818152602001828054620006ad9062001170565b8015620006fe5780601f10620006d257610100808354040283529160200191620006fe565b820191906000526020600020905b815481529060010190602001808311620006e057829003601f168201915b5050505050908060020154908060030160009054906101000a900460ff16905084565b60008054906101000a900473ffffffffffffffffffffffffffffffffffffffff1673ffffffffffffffffffffffffffffffffffffffff163373ffffffffffffffffffffffffffffffffffffffff1614620007b2576040517f08c379a0000000000000000000000000000000000000000000000000000000008152600401620007a9906200102c565b60405180910390fd5b60016002811115620007c957620007c862000de7565b5b6001600083815260200190815260200160002060030160009054906101000a900460ff16600281111562000802576200080162000de7565b5b1462000845576040517f08c379a00000000000000000000000000000000000000000000000000000000081526004016200083c9062000f7d565b60405180910390fd5b60026001600083815260200190815260200160002060030160006101000a81548160ff0219169083600281111562000882576200088162000de7565b5b02179055507fa4035636e99f06b7651a604c1019fa4e8779fe68ef27eeb74dff2de348f6199b816001600084815260200190815260200160002060030160009054906101000a900460ff166002811115620008e257620008e162000de7565b5b6001600085815260200190815260200160002060000160009054906101000a900473ffffffffffffffffffffffffffffffffffffffff166040516200092a9392919062000f9f565b60405180910390a150565b61074e80620011a783390190565b828054620009519062001170565b90600052602060002090601f016020900481019282620009755760008555620009c1565b82601f106200099057805160ff1916838001178555620009c1565b82800160010185558215620009c1579182015b82811115620009c0578251825591602001919060010190620009a3565b5b509050620009d09190620009d4565b5090565b5b80821115620009ef576000816000905550600101620009d5565b5090565b6000604051905090565b600080fd5b600080fd5b6000819050919050565b62000a1c8162000a07565b811462000a2857600080fd5b50565b60008135905062000a3c8162000a11565b92915050565b60006020828403121562000a5b5762000a5a620009fd565b5b600062000a6b8482850162000a2b565b91505092915050565b600080fd5b600080fd5b6000601f19601f8301169050919050565b7f4e487b7100000000000000000000000000000000000000000000000000000000600052604160045260246000fd5b62000ac98262000a7e565b810181811067ffffffffffffffff8211171562000aeb5762000aea62000a8f565b5b80604052505050565b600062000b00620009f3565b905062000b0e828262000abe565b919050565b600067ffffffffffffffff82111562000b315762000b3062000a8f565b5b62000b3c8262000a7e565b9050602081019050919050565b82818337600083830152505050565b600062000b6f62000b698462000b13565b62000af4565b90508281526020810184848401111562000b8e5762000b8d62000a79565b5b62000b9b84828562000b49565b509392505050565b600082601f83011262000bbb5762000bba62000a74565b5b813562000bcd84826020860162000b58565b91505092915050565b6000806040838503121562000bf05762000bef620009fd565b5b600083013567ffffffffffffffff81111562000c115762000c1062000a02565b5b62000c1f8582860162000ba3565b925050602062000c328582860162000a2b565b9150509250929050565b600073ffffffffffffffffffffffffffffffffffffffff82169050919050565b600062000c698262000c3c565b9050919050565b62000c7b8162000c5c565b82525050565b600060208201905062000c98600083018462000c70565b92915050565b60008115159050919050565b62000cb58162000c9e565b82525050565b600060208201905062000cd2600083018462000caa565b92915050565b6000819050919050565b600062000d0362000cfd62000cf78462000c3c565b62000cd8565b62000c3c565b9050919050565b600062000d178262000ce2565b9050919050565b600062000d2b8262000d0a565b9050919050565b62000d3d8162000d1e565b82525050565b600081519050919050565b600082825260208201905092915050565b60005b8381101562000d7f57808201518184015260208101905062000d62565b8381111562000d8f576000848401525b50505050565b600062000da28262000d43565b62000dae818562000d4e565b935062000dc081856020860162000d5f565b62000dcb8162000a7e565b840191505092915050565b62000de18162000a07565b82525050565b7f4e487b7100000000000000000000000000000000000000000000000000000000600052602160045260246000fd5b6003811062000e2a5762000e2962000de7565b5b50565b600081905062000e3d8262000e16565b919050565b600062000e4f8262000e2d565b9050919050565b62000e618162000e42565b82525050565b600060808201905062000e7e600083018762000d32565b818103602083015262000e92818662000d95565b905062000ea3604083018562000dd6565b62000eb2606083018462000e56565b95945050505050565b7f4f6e6c792066756c6c207061796d656e74732061636365707465640000000000600082015250565b600062000ef3601b8362000d4e565b915062000f008262000ebb565b602082019050919050565b6000602082019050818103600083015262000f268162000ee4565b9050919050565b7f4974656d206973206675727468657220696e2074686520636861696e00000000600082015250565b600062000f65601c8362000d4e565b915062000f728262000f2d565b602082019050919050565b6000602082019050818103600083015262000f988162000f56565b9050919050565b600060608201905062000fb6600083018662000dd6565b62000fc5602083018562000dd6565b62000fd4604083018462000c70565b949350505050565b7f596f7520617265206e6f7420746865206f776e65722100000000000000000000600082015250565b60006200101460168362000d4e565b9150620010218262000fdc565b602082019050919050565b60006020820190508181036000830152620010478162001005565b9050919050565b60006200105b8262000ce2565b9050919050565b60006200106f826200104e565b9050919050565b620010818162001062565b82525050565b60006060820190506200109e600083018662001076565b620010ad602083018562000dd6565b620010bc604083018462000dd6565b949350505050565b7f4e487b7100000000000000000000000000000000000000000000000000000000600052601160045260246000fd5b6000620011008262000a07565b91507fffffffffffffffffffffffffffffffffffffffffffffffffffffffffffffffff821415620011365762001135620010c4565b5b600182019050919050565b7f4e487b7100000000000000000000000000000000000000000000000000000000600052602260045260246000fd5b600060028204905060018216806200118957607f821691505b60208210811415620011a0576200119f62001141565b5b5091905056fe608060405234801561001057600080fd5b5060405161074e38038061074e83398181016040528101906100329190610134565b816000819055508060018190555082600360006101000a81548173ffffffffffffffffffffffffffffffffffffffff021916908373ffffffffffffffffffffffffffffffffffffffff160217905550505050610187565b600080fd5b600073ffffffffffffffffffffffffffffffffffffffff82169050919050565b60006100b98261008e565b9050919050565b60006100cb826100ae565b9050919050565b6100db816100c0565b81146100e657600080fd5b50565b6000815190506100f8816100d2565b92915050565b6000819050919050565b610111816100fe565b811461011c57600080fd5b50565b60008151905061012e81610108565b92915050565b60008060006060848603121561014d5761014c610089565b5b600061015b868287016100e9565b935050602061016c8682870161011f565b925050604061017d8682870161011f565b9150509250925092565b6105b8806101966000396000f3fe6080604052600436106100385760003560e01c80632986c0e5146102505780633c8da5881461027b57806389794d00146102a657610241565b3661024157600060025414610082576040517f08c379a000000000000000000000000000000000000000000000000000000000815260040161007990610340565b60405180910390fd5b34600054146100c6576040517f08c379a00000000000000000000000000000000000000000000000000000000081526004016100bd906103ac565b60405180910390fd5b34600260008282546100d89190610405565b925050819055506000600360009054906101000a900473ffffffffffffffffffffffffffffffffffffffff1673ffffffffffffffffffffffffffffffffffffffff163460015460405160240161012e919061046a565b6040516020818303038152906040527f800fb83f000000000000000000000000000000000000000000000000000000007bffffffffffffffffffffffffffffffffffffffffffffffffffffffff19166020820180517bffffffffffffffffffffffffffffffffffffffffffffffffffffffff83818316178352505050506040516101b891906104ff565b60006040518083038185875af1925050503d80600081146101f5576040519150601f19603f3d011682016040523d82523d6000602084013e6101fa565b606091505b505090508061023e576040517f08c379a000000000000000000000000000000000000000000000000000000000815260040161023590610562565b60405180910390fd5b50005b34801561024d57600080fd5b50005b34801561025c57600080fd5b506102656102d1565b604051610272919061046a565b60405180910390f35b34801561028757600080fd5b506102906102d7565b60405161029d919061046a565b60405180910390f35b3480156102b257600080fd5b506102bb6102dd565b6040516102c8919061046a565b60405180910390f35b60015481565b60005481565b60025481565b600082825260208201905092915050565b7f4974656d206973207061696420616c7265616479000000000000000000000000600082015250565b600061032a6014836102e3565b9150610335826102f4565b602082019050919050565b600060208201905081810360008301526103598161031d565b9050919050565b7f4f6e6c792066756c6c207061796d656e74206163636570746564000000000000600082015250565b6000610396601a836102e3565b91506103a182610360565b602082019050919050565b600060208201905081810360008301526103c581610389565b9050919050565b6000819050919050565b7f4e487b7100000000000000000000000000000000000000000000000000000000600052601160045260246000fd5b6000610410826103cc565b915061041b836103cc565b9250827fffffffffffffffffffffffffffffffffffffffffffffffffffffffffffffffff038211156104505761044f6103d6565b5b828201905092915050565b610464816103cc565b82525050565b600060208201905061047f600083018461045b565b92915050565b600081519050919050565b600081905092915050565b60005b838110156104b957808201518184015260208101905061049e565b838111156104c8576000848401525b50505050565b60006104d982610485565b6104e38185610490565b93506104f381856020860161049b565b80840191505092915050565b600061050b82846104ce565b915081905092915050565b7f546865207472616e73616374696f6e207761732063616e63656c6c6564000000600082015250565b600061054c601d836102e3565b915061055782610516565b602082019050919050565b6000602082019050818103600083015261057b8161053f565b905091905056fea264697066735822122041f5340bdf799f232c058de22858d2eaf50ea70151bfbba0069b6a918597500064736f6c634300080b0033a2646970667358221220f4dfa1473dcd249bbe5f32220ab0bee49743179fe718964fbdede85283df5b5664736f6c634300080b0033",
  "immutableReferences": {},
  "source": "pragma solidity >=0.4.21;\r\n\r\nimport \"./Ownable.sol\";\r\nimport \"./Item.sol\";\r\n\r\ncontract ItemManager is Ownable {\r\n    enum SupplyChainState{Created, Paid, Delivered}\r\n\r\n    struct S_Item {\r\n        Item _item;\r\n        string _identifier;\r\n        uint _itemPrice;\r\n        ItemManager.SupplyChainState _state;\r\n    }\r\n\r\n    mapping(uint => S_Item) public items;\r\n\r\n    uint itemIndex;\r\n\r\n    event SupplyChainStep(uint _itemIndex, uint _step, address _itemAddress);\r\n\r\n    function createItem(string memory _identifier, uint _itemPrice) public onlyOwner {\r\n        Item item = new Item(this, _itemPrice, itemIndex);\r\n        items[itemIndex]._item = item;\r\n        items[itemIndex]._identifier = _identifier;\r\n        items[itemIndex]._itemPrice = _itemPrice;\r\n        items[itemIndex]._state = SupplyChainState.Created;\r\n        emit SupplyChainStep(itemIndex, uint(items[itemIndex]._state), address(item));\r\n        itemIndex ++;\r\n    }\r\n\r\n    function triggerPayment(uint _itemIndex) public payable {\r\n        require(items[_itemIndex]._itemPrice == msg.value, \"Only full payments accepted\");\r\n        require(items[_itemIndex]._state == SupplyChainState.Created, \"Item is further in the chain\");\r\n        items[_itemIndex]._state = SupplyChainState.Paid;\r\n        emit SupplyChainStep(_itemIndex, uint(items[_itemIndex]._state), address(items[_itemIndex]._item));\r\n\r\n    }\r\n\r\n    function triggerDelivery(uint _itemIndex) public onlyOwner {\r\n        require(items[_itemIndex]._state == SupplyChainState.Paid, \"Item is further in the chain\");\r\n        items[_itemIndex]._state = SupplyChainState.Delivered;\r\n        emit SupplyChainStep(_itemIndex, uint(items[_itemIndex]._state), address(items[_itemIndex]._item));\r\n    }\r\n}",
  "sourcePath": "C:\\Users\\ACER\\Documents\\myproj\\event-trigger\\contracts\\ItemManager.sol",
  "compiler": {
    "name": "solc",
    "version": "0.8.11+commit.d7f03943.Emscripten.clang"
  },
  "schemaVersion": "3.4.4",
  "updatedAt": "2022-02-05T08:26:35.951Z",
  "networkType": "ethereum",
  "devdoc": {
    "kind": "dev",
    "methods": {},
    "version": 1
  },
  "userdoc": {
    "kind": "user",
    "methods": {},
    "version": 1
  }
}